{
  "_format": "hh-sol-artifact-1",
  "contractName": "ForwarderHashedTimelockERC20",
  "sourceName": "contracts/ForwarderHashedTimelockERC20.sol",
  "abi": [
    {
      "inputs": [
        {
          "internalType": "address",
          "name": "_initialOwner",
          "type": "address"
        },
        {
          "internalType": "address",
          "name": "_tokenContract",
          "type": "address"
        }
      ],
      "stateMutability": "nonpayable",
      "type": "constructor"
    },
    {
      "inputs": [
        {
          "internalType": "address",
          "name": "owner",
          "type": "address"
        }
      ],
      "name": "OwnableInvalidOwner",
      "type": "error"
    },
    {
      "inputs": [
        {
          "internalType": "address",
          "name": "account",
          "type": "address"
        }
      ],
      "name": "OwnableUnauthorizedAccount",
      "type": "error"
    },
    {
      "inputs": [],
      "name": "ReentrancyGuardReentrantCall",
      "type": "error"
    },
    {
      "inputs": [
        {
          "internalType": "address",
          "name": "token",
          "type": "address"
        }
      ],
      "name": "SafeERC20FailedOperation",
      "type": "error"
    },
    {
      "anonymous": false,
      "inputs": [
        {
          "indexed": false,
          "internalType": "bool",
          "name": "incoming",
          "type": "bool"
        },
        {
          "indexed": true,
          "internalType": "address",
          "name": "counterparty",
          "type": "address"
        },
        {
          "indexed": true,
          "internalType": "address",
          "name": "tokenContract",
          "type": "address"
        },
        {
          "indexed": false,
          "internalType": "uint256",
          "name": "amount",
          "type": "uint256"
        },
        {
          "indexed": false,
          "internalType": "bytes32",
          "name": "hashlock",
          "type": "bytes32"
        },
        {
          "indexed": false,
          "internalType": "uint256",
          "name": "timelock",
          "type": "uint256"
        }
      ],
      "name": "HTLCERC20New",
      "type": "event"
    },
    {
      "anonymous": false,
      "inputs": [
        {
          "indexed": true,
          "internalType": "bytes32",
          "name": "hashlock",
          "type": "bytes32"
        },
        {
          "indexed": false,
          "internalType": "address",
          "name": "tokenContract",
          "type": "address"
        },
        {
          "indexed": false,
          "internalType": "uint256",
          "name": "amount",
          "type": "uint256"
        }
      ],
      "name": "HTLCERC20Refund",
      "type": "event"
    },
    {
      "anonymous": false,
      "inputs": [
        {
          "indexed": true,
          "internalType": "bytes32",
          "name": "preimage",
          "type": "bytes32"
        },
        {
          "indexed": false,
          "internalType": "address",
          "name": "tokenContract",
          "type": "address"
        },
        {
          "indexed": false,
          "internalType": "uint256",
          "name": "amount",
          "type": "uint256"
        }
      ],
      "name": "HTLCERC20Settle",
      "type": "event"
    },
    {
      "anonymous": false,
      "inputs": [],
      "name": "HTLCReset",
      "type": "event"
    },
    {
      "anonymous": false,
      "inputs": [
        {
          "indexed": true,
          "internalType": "address",
          "name": "previousOwner",
          "type": "address"
        },
        {
          "indexed": true,
          "internalType": "address",
          "name": "newOwner",
          "type": "address"
        }
      ],
      "name": "OwnershipTransferred",
      "type": "event"
    },
    {
      "anonymous": false,
      "inputs": [
        {
          "indexed": true,
          "internalType": "address",
          "name": "oldTokenContract",
          "type": "address"
        },
        {
          "indexed": true,
          "internalType": "address",
          "name": "newTokenContract",
          "type": "address"
        }
      ],
      "name": "TokenContractChanged",
      "type": "event"
    },
    {
      "inputs": [],
      "name": "amount",
      "outputs": [
        {
          "internalType": "uint256",
          "name": "",
          "type": "uint256"
        }
      ],
      "stateMutability": "view",
      "type": "function"
    },
    {
      "inputs": [],
      "name": "counterparty",
      "outputs": [
        {
          "internalType": "address",
          "name": "",
          "type": "address"
        }
      ],
      "stateMutability": "view",
      "type": "function"
    },
    {
      "inputs": [],
      "name": "getDetails",
      "outputs": [
        {
          "internalType": "bool",
          "name": "_incoming",
          "type": "bool"
        },
        {
          "internalType": "address",
          "name": "_counterparty",
          "type": "address"
        },
        {
          "internalType": "address",
          "name": "_tokenContract",
          "type": "address"
        },
        {
          "internalType": "uint256",
          "name": "_amount",
          "type": "uint256"
        },
        {
          "internalType": "bytes32",
          "name": "_hashlock",
          "type": "bytes32"
        },
        {
          "internalType": "uint256",
          "name": "_timelock",
          "type": "uint256"
        }
      ],
      "stateMutability": "view",
      "type": "function"
    },
    {
      "inputs": [],
      "name": "hashlock",
      "outputs": [
        {
          "internalType": "bytes32",
          "name": "",
          "type": "bytes32"
        }
      ],
      "stateMutability": "view",
      "type": "function"
    },
    {
      "inputs": [],
      "name": "incoming",
      "outputs": [
        {
          "internalType": "bool",
          "name": "",
          "type": "bool"
        }
      ],
      "stateMutability": "view",
      "type": "function"
    },
    {
      "inputs": [],
      "name": "minRoutingAmount",
      "outputs": [
        {
          "internalType": "uint256",
          "name": "",
          "type": "uint256"
        }
      ],
      "stateMutability": "view",
      "type": "function"
    },
    {
      "inputs": [],
      "name": "owner",
      "outputs": [
        {
          "internalType": "address",
          "name": "",
          "type": "address"
        }
      ],
      "stateMutability": "view",
      "type": "function"
    },
    {
      "inputs": [],
      "name": "refund",
      "outputs": [
        {
          "internalType": "bool",
          "name": "",
          "type": "bool"
        }
      ],
      "stateMutability": "nonpayable",
      "type": "function"
    },
    {
      "inputs": [],
      "name": "renounceOwnership",
      "outputs": [],
      "stateMutability": "nonpayable",
      "type": "function"
    },
    {
      "inputs": [
        {
          "internalType": "address",
          "name": "_counterparty",
          "type": "address"
        },
        {
          "internalType": "bool",
          "name": "_incoming",
          "type": "bool"
        },
        {
          "internalType": "bytes32",
          "name": "_hashlock",
          "type": "bytes32"
        },
        {
          "internalType": "uint256",
          "name": "_timelock",
          "type": "uint256"
        },
        {
          "internalType": "address",
          "name": "_tokenContract",
          "type": "address"
        },
        {
          "internalType": "uint256",
          "name": "_amount",
          "type": "uint256"
        }
      ],
      "name": "route",
      "outputs": [
        {
          "internalType": "bool",
          "name": "",
          "type": "bool"
        }
      ],
      "stateMutability": "nonpayable",
      "type": "function"
    },
    {
      "inputs": [
        {
          "internalType": "uint256",
          "name": "_amount",
          "type": "uint256"
        }
      ],
      "name": "setMinimalAmount",
      "outputs": [
        {
          "internalType": "bool",
          "name": "",
          "type": "bool"
        }
      ],
      "stateMutability": "nonpayable",
      "type": "function"
    },
    {
      "inputs": [
        {
          "internalType": "address",
          "name": "_newTokenContract",
          "type": "address"
        }
      ],
      "name": "setTokenContract",
      "outputs": [
        {
          "internalType": "bool",
          "name": "",
          "type": "bool"
        }
      ],
      "stateMutability": "nonpayable",
      "type": "function"
    },
    {
      "inputs": [
        {
          "internalType": "bytes32",
          "name": "_preimage",
          "type": "bytes32"
        }
      ],
      "name": "settle",
      "outputs": [
        {
          "internalType": "bool",
          "name": "",
          "type": "bool"
        }
      ],
      "stateMutability": "nonpayable",
      "type": "function"
    },
    {
      "inputs": [],
      "name": "timelock",
      "outputs": [
        {
          "internalType": "uint256",
          "name": "",
          "type": "uint256"
        }
      ],
      "stateMutability": "view",
      "type": "function"
    },
    {
      "inputs": [],
      "name": "tokenContract",
      "outputs": [
        {
          "internalType": "address",
          "name": "",
          "type": "address"
        }
      ],
      "stateMutability": "view",
      "type": "function"
    },
    {
      "inputs": [],
      "name": "tokenDecimals",
      "outputs": [
        {
          "internalType": "uint8",
          "name": "",
          "type": "uint8"
        }
      ],
      "stateMutability": "view",
      "type": "function"
    },
    {
      "inputs": [
        {
          "internalType": "address",
          "name": "_tokenContract",
          "type": "address"
        },
        {
          "internalType": "address",
          "name": "_counterparty",
          "type": "address"
        },
        {
          "internalType": "uint256",
          "name": "_amount",
          "type": "uint256"
        }
      ],
      "name": "transfer",
      "outputs": [
        {
          "internalType": "bool",
          "name": "",
          "type": "bool"
        }
      ],
      "stateMutability": "nonpayable",
      "type": "function"
    },
    {
      "inputs": [
        {
          "internalType": "address",
          "name": "newOwner",
          "type": "address"
        }
      ],
      "name": "transferOwnership",
      "outputs": [],
      "stateMutability": "nonpayable",
      "type": "function"
    }
  ],
  "bytecode": "0x60806040523480156200001157600080fd5b50604051620015c5380380620015c583398101604081905262000034916200026d565b6001600055816001600160a01b0381166200006a57604051631e4fbdf760e01b8152600060048201526024015b60405180910390fd5b6200007581620001b4565b50806001600160a01b031663313ce5676040518163ffffffff1660e01b8152600401602060405180830381865afa158015620000b5573d6000803e3d6000fd5b505050506040513d601f19601f82011682018060405250810190620000db9190620002a5565b6003805460ff60a01b1916600160a01b60ff93841681029190911791829055600891049091161015620001815760405162461bcd60e51b815260206004820152604160248201527f546f6b656e20636f6e747261637420707265636973696f6e206d75737420626560448201527f206174206c6561737420657175616c206f722067726561746572207468616e206064820152600760fb1b608482015260a40162000061565b612710600755600380546001600160a01b0319166001600160a01b038316179055620001ac62000206565b5050620002d1565b600180546001600160a01b038381166001600160a01b0319831681179093556040519116919082907f8be0079c531659141344cd1fd0a4f28419497f9722a3daafe3b4186f6b6457e090600090a35050565b600280546001600160a01b031916905560006004819055600681905560058190556040517f5bd4ab0fda180bc19550192df39c9c8a436c0c2ba37af2486eb2577f824f00c99190a1565b80516001600160a01b03811681146200026857600080fd5b919050565b600080604083850312156200028157600080fd5b6200028c8362000250565b91506200029c6020840162000250565b90509250929050565b600060208284031215620002b857600080fd5b815160ff81168114620002ca57600080fd5b9392505050565b6112e480620002e16000396000f3fe608060405234801561001057600080fd5b50600436106101165760003560e01c8063a782086e116100a2578063c3df654611610071578063c3df65461461022d578063d33219b414610240578063e3f9544b14610249578063f2fde38b1461025c578063fbbf93a01461026f57600080fd5b8063a782086e146101f5578063aa8c217c146101fe578063bbcd5bbe14610207578063beabacc81461021a57600080fd5b8063715018a6116100e9578063715018a61461019c5780638da5cb5b146101a6578063987757dd146101b75780639fc8f2fe146101ca578063a45644cc146101de57600080fd5b80633b97e8561461011b578063409615f61461014657806355a373d614610169578063590e1ae314610194575b600080fd5b60035461012f90600160a01b900460ff1681565b60405160ff90911681526020015b60405180910390f35b610159610154366004610fa0565b6102c9565b604051901515815260200161013d565b60035461017c906001600160a01b031681565b6040516001600160a01b03909116815260200161013d565b61015961033f565b6101a46104e8565b005b6001546001600160a01b031661017c565b6101596101c5366004610fa0565b6104fc565b60015461015990600160a01b900460ff1681565b6101e760075481565b60405190815260200161013d565b6101e760055481565b6101e760045481565b610159610215366004610fd0565b61065d565b610159610228366004610ff2565b6108b9565b60025461017c906001600160a01b031681565b6101e760065481565b61015961025736600461103c565b61090a565b6101a461026a366004610fd0565b610d5b565b60015460025460035460045460055460065460408051600160a01b90970460ff16151587526001600160a01b03958616602088015294909316938501939093526060840152608083019190915260a082015260c00161013d565b60006102d3610d99565b6002546001600160a01b0316156103055760405162461bcd60e51b81526004016102fc9061109d565b60405180910390fd5b60035461031e90600890600160a01b900460ff166110ea565b61032990600a6111ed565b61033390836111fc565b6007555060015b919050565b6000610349610dc6565b6002546001600160a01b03166103a15760405162461bcd60e51b815260206004820152601760248201527f4e6f7420696e20736574746c656d656e7420737461746500000000000000000060448201526064016102fc565b4260065411156103f35760405162461bcd60e51b815260206004820152601760248201527f54696d656c6f636b206e6f74207965742070617373656400000000000000000060448201526064016102fc565b600154600160a01b900460ff16610483576003546002546004805460405163a9059cbb60e01b81526001600160a01b0393841692810192909252602482015291169063a9059cbb906044016020604051808303816000875af115801561045d573d6000803e3d6000fd5b505050506040513d601f19601f820116820180604052508101906104819190611213565b505b600554600354600454604080516001600160a01b03909316835260208301919091527f46ce46f569a5a717523440e97ad587475b589db9f3961907adfbd17a8a924d68910160405180910390a26104d8610df0565b5060016104e56001600055565b90565b6104f0610d99565b6104fa6000610e3a565b565b6000610506610dc6565b6005548260028160405160200161051f91815260200190565b60408051601f198184030181529082905261053991611230565b602060405180830381855afa158015610556573d6000803e3d6000fd5b5050506040513d601f19601f82011682018060405250810190610579919061125f565b82146105c75760405162461bcd60e51b815260206004820152601c60248201527f486173686c6f636b206861736820646f6573206e6f74206d617463680000000060448201526064016102fc565b600154600160a01b900460ff166105f9576002546004546003546105f9926001600160a01b0391821692911690610e8c565b600354600454604080516001600160a01b039093168352602083019190915285917f62c18ef137bc571142fe028833a438c971996e417a2974bfba857e0540b32572910160405180910390a261064d610df0565b60019250505061033a6001600055565b6000610667610d99565b6002546001600160a01b0316156106905760405162461bcd60e51b81526004016102fc9061109d565b6001600160a01b0382166106f25760405162461bcd60e51b8152602060048201526024808201527f546f6b656e20636f6e74726163742063616e2774206265207a65726f206164646044820152637265737360e01b60648201526084016102fc565b6003546001600160a01b039081169083160361075c5760405162461bcd60e51b815260206004820152602360248201527f4e657720746f6b656e2061646472657373206d75737420626520646966666572604482015262195b9d60ea1b60648201526084016102fc565b6003546040805163313ce56760e01b815290516001600160a01b039283169285169163313ce5679160048083019260209291908290030181865afa1580156107a8573d6000803e3d6000fd5b505050506040513d601f19601f820116820180604052508101906107cc9190611278565b6003805460ff60a01b1916600160a01b60ff938416810291909117918290556008910490911610156108705760405162461bcd60e51b815260206004820152604160248201527f546f6b656e20636f6e747261637420707265636973696f6e206d75737420626560448201527f206174206c6561737420657175616c206f722067726561746572207468616e206064820152600760fb1b608482015260a4016102fc565b826001600160a01b0316816001600160a01b03167f77eb83e5a99d4c074eb700f13ac00ff604c6325fe03fc8720fa7ae2b5909387d60405160405180910390a350600192915050565b60006108c3610d99565b6002546001600160a01b0316156108ec5760405162461bcd60e51b81526004016102fc9061109d565b6109006001600160a01b0385168484610e8c565b5060019392505050565b6002546000906001600160a01b0316156109365760405162461bcd60e51b81526004016102fc9061109d565b6003546001600160a01b0384811691161461098a5760405162461bcd60e51b8152602060048201526014602482015273151bdad95b881a5cc81b9bdd08185b1b1bddd95960621b60448201526064016102fc565b6001600160a01b0387166109eb5760405162461bcd60e51b815260206004820152602260248201527f436f756e74657270617274792063616e2774206265207a65726f206164647265604482015261737360f01b60648201526084016102fc565b6007548211610a4c5760405162461bcd60e51b815260206004820152602760248201527f546f6b656e20616d6f756e74206d757374206265203e206d696e526f7574696e60448201526619d05b5bdd5b9d60ca1b60648201526084016102fc565b84610a925760405162461bcd60e51b8152602060048201526016602482015275486173686c6f636b2063616e2774206265207a65726f60501b60448201526064016102fc565b428411610aed5760405162461bcd60e51b815260206004820152602360248201527f54696d656c6f636b2074696d65206d75737420626520696e207468652066757460448201526275726560e81b60648201526084016102fc565b610afa426212750061129b565b8410610b605760405162461bcd60e51b815260206004820152602f60248201527f54696d656c6f636b2074696d65206d757374206265206e6f7420746f6f20666160448201526e7220696e207468652066757475726560881b60648201526084016102fc565b8515610c5057604051636eb1769f60e11b81526001600160a01b03888116600483015230602483015283919085169063dd62ed3e90604401602060405180830381865afa158015610bb5573d6000803e3d6000fd5b505050506040513d601f19601f82011682018060405250810190610bd9919061125f565b14610c365760405162461bcd60e51b815260206004820152602760248201527f546f6b656e20616c6c6f77616e6365206d75737420626520657175616c20746f60448201526608185b5bdd5b9d60ca1b60648201526084016102fc565b610c4b6001600160a01b038416883085610ef0565b610cb8565b6001546001600160a01b03163314610cb85760405162461bcd60e51b815260206004820152602560248201527f4f6e6c79206f776e65722063616e20736574206f7574676f696e67207472616e604482015264736665727360d81b60648201526084016102fc565b6001805460ff60a01b1916600160a01b88151590810291909117909155600280546001600160a01b0319166001600160a01b038a81169182179092556004859055600687905560058890556040805193845260208401869052830188905260608301879052908516917f1fe0ebad5cb5a8e38d7b57ef2c463d0440398a6a8aa1484acb0479e29e70bb9d9060800160405180910390a35060019695505050505050565b610d63610d99565b6001600160a01b038116610d8d57604051631e4fbdf760e01b8152600060048201526024016102fc565b610d9681610e3a565b50565b6001546001600160a01b031633146104fa5760405163118cdaa760e01b81523360048201526024016102fc565b600260005403610de957604051633ee5aeb560e01b815260040160405180910390fd5b6002600055565b600280546001600160a01b031916905560006004819055600681905560058190556040517f5bd4ab0fda180bc19550192df39c9c8a436c0c2ba37af2486eb2577f824f00c99190a1565b600180546001600160a01b038381166001600160a01b0319831681179093556040519116919082907f8be0079c531659141344cd1fd0a4f28419497f9722a3daafe3b4186f6b6457e090600090a35050565b6040516001600160a01b03838116602483015260448201839052610eeb91859182169063a9059cbb906064015b604051602081830303815290604052915060e01b6020820180516001600160e01b038381831617835250505050610f2f565b505050565b6040516001600160a01b038481166024830152838116604483015260648201839052610f299186918216906323b872dd90608401610eb9565b50505050565b600080602060008451602086016000885af180610f52576040513d6000823e3d81fd5b50506000513d91508115610f6a578060011415610f77565b6001600160a01b0384163b155b15610f2957604051635274afe760e01b81526001600160a01b03851660048201526024016102fc565b600060208284031215610fb257600080fd5b5035919050565b80356001600160a01b038116811461033a57600080fd5b600060208284031215610fe257600080fd5b610feb82610fb9565b9392505050565b60008060006060848603121561100757600080fd5b61101084610fb9565b925061101e60208501610fb9565b9150604084013590509250925092565b8015158114610d9657600080fd5b60008060008060008060c0878903121561105557600080fd5b61105e87610fb9565b9550602087013561106e8161102e565b9450604087013593506060870135925061108a60808801610fb9565b915060a087013590509295509295509295565b6020808252601f908201527f436f6e747261637420697320696e20736574746c656d656e7420737461746500604082015260600190565b634e487b7160e01b600052601160045260246000fd5b60ff8281168282160390811115611103576111036110d4565b92915050565b600181815b8085111561114457816000190482111561112a5761112a6110d4565b8085161561113757918102915b93841c939080029061110e565b509250929050565b60008261115b57506001611103565b8161116857506000611103565b816001811461117e5760028114611188576111a4565b6001915050611103565b60ff841115611199576111996110d4565b50506001821b611103565b5060208310610133831016604e8410600b84101617156111c7575081810a611103565b6111d18383611109565b80600019048211156111e5576111e56110d4565b029392505050565b6000610feb60ff84168361114c565b8082028115828204841417611103576111036110d4565b60006020828403121561122557600080fd5b8151610feb8161102e565b6000825160005b818110156112515760208186018101518583015201611237565b506000920191825250919050565b60006020828403121561127157600080fd5b5051919050565b60006020828403121561128a57600080fd5b815160ff81168114610feb57600080fd5b80820180821115611103576111036110d456fea2646970667358221220c017ce9f506bf070c87984ff6f476362d4e6d48a954a10107bb2ae5ba265531264736f6c63430008180033",
  "linkReferences": {},
  "deployedLinkReferences": {}
}