{
  "_format": "hh-sol-artifact-1",
  "contractName": "ForwarderHashedTimelockERC20",
  "sourceName": "contracts/ForwarderHashedTimelockERC20.sol",
  "abi": [
    {
      "inputs": [
        {
          "internalType": "address",
          "name": "_initialOwner",
          "type": "address"
        },
        {
          "internalType": "address",
          "name": "_tokenContract",
          "type": "address"
        }
      ],
      "stateMutability": "nonpayable",
      "type": "constructor"
    },
    {
      "inputs": [
        {
          "internalType": "address",
          "name": "owner",
          "type": "address"
        }
      ],
      "name": "OwnableInvalidOwner",
      "type": "error"
    },
    {
      "inputs": [
        {
          "internalType": "address",
          "name": "account",
          "type": "address"
        }
      ],
      "name": "OwnableUnauthorizedAccount",
      "type": "error"
    },
    {
      "inputs": [],
      "name": "ReentrancyGuardReentrantCall",
      "type": "error"
    },
    {
      "inputs": [
        {
          "internalType": "address",
          "name": "token",
          "type": "address"
        }
      ],
      "name": "SafeERC20FailedOperation",
      "type": "error"
    },
    {
      "anonymous": false,
      "inputs": [
        {
          "indexed": false,
          "internalType": "bool",
          "name": "incoming",
          "type": "bool"
        },
        {
          "indexed": true,
          "internalType": "address",
          "name": "counterparty",
          "type": "address"
        },
        {
          "indexed": true,
          "internalType": "address",
          "name": "tokenContract",
          "type": "address"
        },
        {
          "indexed": false,
          "internalType": "uint256",
          "name": "amount",
          "type": "uint256"
        },
        {
          "indexed": false,
          "internalType": "bytes32",
          "name": "hashlock",
          "type": "bytes32"
        },
        {
          "indexed": false,
          "internalType": "uint256",
          "name": "timelock",
          "type": "uint256"
        }
      ],
      "name": "HTLCERC20New",
      "type": "event"
    },
    {
      "anonymous": false,
      "inputs": [
        {
          "indexed": true,
          "internalType": "bytes32",
          "name": "hashlock",
          "type": "bytes32"
        },
        {
          "indexed": false,
          "internalType": "address",
          "name": "tokenContract",
          "type": "address"
        },
        {
          "indexed": false,
          "internalType": "uint256",
          "name": "amount",
          "type": "uint256"
        }
      ],
      "name": "HTLCERC20Refund",
      "type": "event"
    },
    {
      "anonymous": false,
      "inputs": [
        {
          "indexed": true,
          "internalType": "bytes32",
          "name": "preimage",
          "type": "bytes32"
        },
        {
          "indexed": false,
          "internalType": "address",
          "name": "tokenContract",
          "type": "address"
        },
        {
          "indexed": false,
          "internalType": "uint256",
          "name": "amount",
          "type": "uint256"
        }
      ],
      "name": "HTLCERC20Settle",
      "type": "event"
    },
    {
      "anonymous": false,
      "inputs": [],
      "name": "HTLCReset",
      "type": "event"
    },
    {
      "anonymous": false,
      "inputs": [
        {
          "indexed": true,
          "internalType": "address",
          "name": "previousOwner",
          "type": "address"
        },
        {
          "indexed": true,
          "internalType": "address",
          "name": "newOwner",
          "type": "address"
        }
      ],
      "name": "OwnershipTransferred",
      "type": "event"
    },
    {
      "anonymous": false,
      "inputs": [
        {
          "indexed": true,
          "internalType": "address",
          "name": "oldTokenContract",
          "type": "address"
        },
        {
          "indexed": true,
          "internalType": "address",
          "name": "newTokenContract",
          "type": "address"
        }
      ],
      "name": "TokenContractChanged",
      "type": "event"
    },
    {
      "inputs": [],
      "name": "amount",
      "outputs": [
        {
          "internalType": "uint256",
          "name": "",
          "type": "uint256"
        }
      ],
      "stateMutability": "view",
      "type": "function"
    },
    {
      "inputs": [],
      "name": "counterparty",
      "outputs": [
        {
          "internalType": "address",
          "name": "",
          "type": "address"
        }
      ],
      "stateMutability": "view",
      "type": "function"
    },
    {
      "inputs": [],
      "name": "getDetails",
      "outputs": [
        {
          "internalType": "bool",
          "name": "_incoming",
          "type": "bool"
        },
        {
          "internalType": "address",
          "name": "_counterparty",
          "type": "address"
        },
        {
          "internalType": "address",
          "name": "_tokenContract",
          "type": "address"
        },
        {
          "internalType": "uint256",
          "name": "_amount",
          "type": "uint256"
        },
        {
          "internalType": "bytes32",
          "name": "_hashlock",
          "type": "bytes32"
        },
        {
          "internalType": "uint256",
          "name": "_timelock",
          "type": "uint256"
        }
      ],
      "stateMutability": "view",
      "type": "function"
    },
    {
      "inputs": [],
      "name": "hashlock",
      "outputs": [
        {
          "internalType": "bytes32",
          "name": "",
          "type": "bytes32"
        }
      ],
      "stateMutability": "view",
      "type": "function"
    },
    {
      "inputs": [],
      "name": "incoming",
      "outputs": [
        {
          "internalType": "bool",
          "name": "",
          "type": "bool"
        }
      ],
      "stateMutability": "view",
      "type": "function"
    },
    {
      "inputs": [],
      "name": "minRoutingAmount",
      "outputs": [
        {
          "internalType": "uint256",
          "name": "",
          "type": "uint256"
        }
      ],
      "stateMutability": "view",
      "type": "function"
    },
    {
      "inputs": [],
      "name": "owner",
      "outputs": [
        {
          "internalType": "address",
          "name": "",
          "type": "address"
        }
      ],
      "stateMutability": "view",
      "type": "function"
    },
    {
      "inputs": [],
      "name": "refund",
      "outputs": [
        {
          "internalType": "bool",
          "name": "",
          "type": "bool"
        }
      ],
      "stateMutability": "nonpayable",
      "type": "function"
    },
    {
      "inputs": [],
      "name": "renounceOwnership",
      "outputs": [],
      "stateMutability": "nonpayable",
      "type": "function"
    },
    {
      "inputs": [
        {
          "internalType": "address",
          "name": "_counterparty",
          "type": "address"
        },
        {
          "internalType": "bool",
          "name": "_incoming",
          "type": "bool"
        },
        {
          "internalType": "bytes32",
          "name": "_hashlock",
          "type": "bytes32"
        },
        {
          "internalType": "uint256",
          "name": "_timelock",
          "type": "uint256"
        },
        {
          "internalType": "address",
          "name": "_tokenContract",
          "type": "address"
        },
        {
          "internalType": "uint256",
          "name": "_amount",
          "type": "uint256"
        }
      ],
      "name": "route",
      "outputs": [
        {
          "internalType": "bool",
          "name": "",
          "type": "bool"
        }
      ],
      "stateMutability": "nonpayable",
      "type": "function"
    },
    {
      "inputs": [
        {
          "internalType": "uint256",
          "name": "_amount",
          "type": "uint256"
        }
      ],
      "name": "setMinimalAmount",
      "outputs": [
        {
          "internalType": "bool",
          "name": "",
          "type": "bool"
        }
      ],
      "stateMutability": "nonpayable",
      "type": "function"
    },
    {
      "inputs": [
        {
          "internalType": "address",
          "name": "_newTokenContract",
          "type": "address"
        }
      ],
      "name": "setTokenContract",
      "outputs": [
        {
          "internalType": "bool",
          "name": "",
          "type": "bool"
        }
      ],
      "stateMutability": "nonpayable",
      "type": "function"
    },
    {
      "inputs": [
        {
          "internalType": "bytes32",
          "name": "_preimage",
          "type": "bytes32"
        }
      ],
      "name": "settle",
      "outputs": [
        {
          "internalType": "bool",
          "name": "",
          "type": "bool"
        }
      ],
      "stateMutability": "nonpayable",
      "type": "function"
    },
    {
      "inputs": [],
      "name": "timelock",
      "outputs": [
        {
          "internalType": "uint256",
          "name": "",
          "type": "uint256"
        }
      ],
      "stateMutability": "view",
      "type": "function"
    },
    {
      "inputs": [],
      "name": "tokenContract",
      "outputs": [
        {
          "internalType": "address",
          "name": "",
          "type": "address"
        }
      ],
      "stateMutability": "view",
      "type": "function"
    },
    {
      "inputs": [],
      "name": "tokenDecimals",
      "outputs": [
        {
          "internalType": "uint8",
          "name": "",
          "type": "uint8"
        }
      ],
      "stateMutability": "view",
      "type": "function"
    },
    {
      "inputs": [
        {
          "internalType": "address",
          "name": "_tokenContract",
          "type": "address"
        },
        {
          "internalType": "address",
          "name": "_counterparty",
          "type": "address"
        },
        {
          "internalType": "uint256",
          "name": "_amount",
          "type": "uint256"
        }
      ],
      "name": "transfer",
      "outputs": [
        {
          "internalType": "bool",
          "name": "",
          "type": "bool"
        }
      ],
      "stateMutability": "nonpayable",
      "type": "function"
    },
    {
      "inputs": [
        {
          "internalType": "address",
          "name": "newOwner",
          "type": "address"
        }
      ],
      "name": "transferOwnership",
      "outputs": [],
      "stateMutability": "nonpayable",
      "type": "function"
    }
  ],
  "bytecode": "0x60806040523480156200001157600080fd5b50604051620015423803806200154283398101604081905262000034916200026d565b6001600055816001600160a01b0381166200006a57604051631e4fbdf760e01b8152600060048201526024015b60405180910390fd5b6200007581620001b4565b50806001600160a01b031663313ce5676040518163ffffffff1660e01b8152600401602060405180830381865afa158015620000b5573d6000803e3d6000fd5b505050506040513d601f19601f82011682018060405250810190620000db9190620002a5565b6003805460ff60a01b1916600160a01b60ff93841681029190911791829055600891049091161015620001815760405162461bcd60e51b815260206004820152604160248201527f546f6b656e20636f6e747261637420707265636973696f6e206d75737420626560448201527f206174206c6561737420657175616c206f722067726561746572207468616e206064820152600760fb1b608482015260a40162000061565b612710600755600380546001600160a01b0319166001600160a01b038316179055620001ac62000206565b5050620002d1565b600180546001600160a01b038381166001600160a01b0319831681179093556040519116919082907f8be0079c531659141344cd1fd0a4f28419497f9722a3daafe3b4186f6b6457e090600090a35050565b600280546001600160a01b031916905560006004819055600681905560058190556040517f5bd4ab0fda180bc19550192df39c9c8a436c0c2ba37af2486eb2577f824f00c99190a1565b80516001600160a01b03811681146200026857600080fd5b919050565b600080604083850312156200028157600080fd5b6200028c8362000250565b91506200029c6020840162000250565b90509250929050565b600060208284031215620002b857600080fd5b815160ff81168114620002ca57600080fd5b9392505050565b61126180620002e16000396000f3fe608060405234801561001057600080fd5b50600436106101165760003560e01c8063a782086e116100a2578063c3df654611610071578063c3df65461461022d578063d33219b414610240578063e3f9544b14610249578063f2fde38b1461025c578063fbbf93a01461026f57600080fd5b8063a782086e146101f5578063aa8c217c146101fe578063bbcd5bbe14610207578063beabacc81461021a57600080fd5b8063715018a6116100e9578063715018a61461019c5780638da5cb5b146101a6578063987757dd146101b75780639fc8f2fe146101ca578063a45644cc146101de57600080fd5b80633b97e8561461011b578063409615f61461014657806355a373d614610169578063590e1ae314610194575b600080fd5b60035461012f90600160a01b900460ff1681565b60405160ff90911681526020015b60405180910390f35b610159610154366004610f43565b6102c9565b604051901515815260200161013d565b60035461017c906001600160a01b031681565b6040516001600160a01b03909116815260200161013d565b61015961033f565b6101a461048b565b005b6001546001600160a01b031661017c565b6101596101c5366004610f43565b61049f565b60015461015990600160a01b900460ff1681565b6101e760075481565b60405190815260200161013d565b6101e760055481565b6101e760045481565b610159610215366004610f73565b610600565b610159610228366004610f95565b61085c565b60025461017c906001600160a01b031681565b6101e760065481565b610159610257366004610fd1565b6108ad565b6101a461026a366004610f73565b610cfe565b60015460025460035460045460055460065460408051600160a01b90970460ff16151587526001600160a01b03958616602088015294909316938501939093526060840152608083019190915260a082015260c00161013d565b60006102d3610d3c565b6002546001600160a01b0316156103055760405162461bcd60e51b81526004016102fc90611037565b60405180910390fd5b60035461031e90600890600160a01b900460ff16611084565b61032990600a611187565b6103339083611196565b6007555060015b919050565b6000610349610d69565b6002546001600160a01b03166103a15760405162461bcd60e51b815260206004820152601760248201527f4e6f7420696e20736574746c656d656e7420737461746500000000000000000060448201526064016102fc565b4260065411156103f35760405162461bcd60e51b815260206004820152601760248201527f54696d656c6f636b206e6f74207965742070617373656400000000000000000060448201526064016102fc565b600154600160a01b900460ff161561042657600254600454600354610426926001600160a01b0391821692911690610d93565b600554600354600454604080516001600160a01b03909316835260208301919091527f46ce46f569a5a717523440e97ad587475b589db9f3961907adfbd17a8a924d68910160405180910390a261047b610df7565b5060016104886001600055565b90565b610493610d3c565b61049d6000610e41565b565b60006104a9610d69565b600554826002816040516020016104c291815260200190565b60408051601f19818403018152908290526104dc916111ad565b602060405180830381855afa1580156104f9573d6000803e3d6000fd5b5050506040513d601f19601f8201168201806040525081019061051c91906111dc565b821461056a5760405162461bcd60e51b815260206004820152601c60248201527f486173686c6f636b206861736820646f6573206e6f74206d617463680000000060448201526064016102fc565b600154600160a01b900460ff1661059c5760025460045460035461059c926001600160a01b0391821692911690610d93565b600354600454604080516001600160a01b039093168352602083019190915285917f62c18ef137bc571142fe028833a438c971996e417a2974bfba857e0540b32572910160405180910390a26105f0610df7565b60019250505061033a6001600055565b600061060a610d3c565b6002546001600160a01b0316156106335760405162461bcd60e51b81526004016102fc90611037565b6001600160a01b0382166106955760405162461bcd60e51b8152602060048201526024808201527f546f6b656e20636f6e74726163742063616e2774206265207a65726f206164646044820152637265737360e01b60648201526084016102fc565b6003546001600160a01b03908116908316036106ff5760405162461bcd60e51b815260206004820152602360248201527f4e657720746f6b656e2061646472657373206d75737420626520646966666572604482015262195b9d60ea1b60648201526084016102fc565b6003546040805163313ce56760e01b815290516001600160a01b039283169285169163313ce5679160048083019260209291908290030181865afa15801561074b573d6000803e3d6000fd5b505050506040513d601f19601f8201168201806040525081019061076f91906111f5565b6003805460ff60a01b1916600160a01b60ff938416810291909117918290556008910490911610156108135760405162461bcd60e51b815260206004820152604160248201527f546f6b656e20636f6e747261637420707265636973696f6e206d75737420626560448201527f206174206c6561737420657175616c206f722067726561746572207468616e206064820152600760fb1b608482015260a4016102fc565b826001600160a01b0316816001600160a01b03167f77eb83e5a99d4c074eb700f13ac00ff604c6325fe03fc8720fa7ae2b5909387d60405160405180910390a350600192915050565b6000610866610d3c565b6002546001600160a01b03161561088f5760405162461bcd60e51b81526004016102fc90611037565b6108a36001600160a01b0385168484610d93565b5060019392505050565b6002546000906001600160a01b0316156108d95760405162461bcd60e51b81526004016102fc90611037565b6003546001600160a01b0384811691161461092d5760405162461bcd60e51b8152602060048201526014602482015273151bdad95b881a5cc81b9bdd08185b1b1bddd95960621b60448201526064016102fc565b6001600160a01b03871661098e5760405162461bcd60e51b815260206004820152602260248201527f436f756e74657270617274792063616e2774206265207a65726f206164647265604482015261737360f01b60648201526084016102fc565b60075482116109ef5760405162461bcd60e51b815260206004820152602760248201527f546f6b656e20616d6f756e74206d757374206265203e206d696e526f7574696e60448201526619d05b5bdd5b9d60ca1b60648201526084016102fc565b84610a355760405162461bcd60e51b8152602060048201526016602482015275486173686c6f636b2063616e2774206265207a65726f60501b60448201526064016102fc565b428411610a905760405162461bcd60e51b815260206004820152602360248201527f54696d656c6f636b2074696d65206d75737420626520696e207468652066757460448201526275726560e81b60648201526084016102fc565b610a9d4262127500611218565b8410610b035760405162461bcd60e51b815260206004820152602f60248201527f54696d656c6f636b2074696d65206d757374206265206e6f7420746f6f20666160448201526e7220696e207468652066757475726560881b60648201526084016102fc565b8515610bf357604051636eb1769f60e11b81526001600160a01b03888116600483015230602483015283919085169063dd62ed3e90604401602060405180830381865afa158015610b58573d6000803e3d6000fd5b505050506040513d601f19601f82011682018060405250810190610b7c91906111dc565b14610bd95760405162461bcd60e51b815260206004820152602760248201527f546f6b656e20616c6c6f77616e6365206d75737420626520657175616c20746f60448201526608185b5bdd5b9d60ca1b60648201526084016102fc565b610bee6001600160a01b038416883085610e93565b610c5b565b6001546001600160a01b03163314610c5b5760405162461bcd60e51b815260206004820152602560248201527f4f6e6c79206f776e65722063616e20736574206f7574676f696e67207472616e604482015264736665727360d81b60648201526084016102fc565b6001805460ff60a01b1916600160a01b88151590810291909117909155600280546001600160a01b0319166001600160a01b038a81169182179092556004859055600687905560058890556040805193845260208401869052830188905260608301879052908516917f1fe0ebad5cb5a8e38d7b57ef2c463d0440398a6a8aa1484acb0479e29e70bb9d9060800160405180910390a35060019695505050505050565b610d06610d3c565b6001600160a01b038116610d3057604051631e4fbdf760e01b8152600060048201526024016102fc565b610d3981610e41565b50565b6001546001600160a01b0316331461049d5760405163118cdaa760e01b81523360048201526024016102fc565b600260005403610d8c57604051633ee5aeb560e01b815260040160405180910390fd5b6002600055565b6040516001600160a01b03838116602483015260448201839052610df291859182169063a9059cbb906064015b604051602081830303815290604052915060e01b6020820180516001600160e01b038381831617835250505050610ed2565b505050565b600280546001600160a01b031916905560006004819055600681905560058190556040517f5bd4ab0fda180bc19550192df39c9c8a436c0c2ba37af2486eb2577f824f00c99190a1565b600180546001600160a01b038381166001600160a01b0319831681179093556040519116919082907f8be0079c531659141344cd1fd0a4f28419497f9722a3daafe3b4186f6b6457e090600090a35050565b6040516001600160a01b038481166024830152838116604483015260648201839052610ecc9186918216906323b872dd90608401610dc0565b50505050565b600080602060008451602086016000885af180610ef5576040513d6000823e3d81fd5b50506000513d91508115610f0d578060011415610f1a565b6001600160a01b0384163b155b15610ecc57604051635274afe760e01b81526001600160a01b03851660048201526024016102fc565b600060208284031215610f5557600080fd5b5035919050565b80356001600160a01b038116811461033a57600080fd5b600060208284031215610f8557600080fd5b610f8e82610f5c565b9392505050565b600080600060608486031215610faa57600080fd5b610fb384610f5c565b9250610fc160208501610f5c565b9150604084013590509250925092565b60008060008060008060c08789031215610fea57600080fd5b610ff387610f5c565b95506020870135801515811461100857600080fd5b9450604087013593506060870135925061102460808801610f5c565b915060a087013590509295509295509295565b6020808252601f908201527f436f6e747261637420697320696e20736574746c656d656e7420737461746500604082015260600190565b634e487b7160e01b600052601160045260246000fd5b60ff828116828216039081111561109d5761109d61106e565b92915050565b600181815b808511156110de5781600019048211156110c4576110c461106e565b808516156110d157918102915b93841c93908002906110a8565b509250929050565b6000826110f55750600161109d565b816111025750600061109d565b816001811461111857600281146111225761113e565b600191505061109d565b60ff8411156111335761113361106e565b50506001821b61109d565b5060208310610133831016604e8410600b8410161715611161575081810a61109d565b61116b83836110a3565b806000190482111561117f5761117f61106e565b029392505050565b6000610f8e60ff8416836110e6565b808202811582820484141761109d5761109d61106e565b6000825160005b818110156111ce57602081860181015185830152016111b4565b506000920191825250919050565b6000602082840312156111ee57600080fd5b5051919050565b60006020828403121561120757600080fd5b815160ff81168114610f8e57600080fd5b8082018082111561109d5761109d61106e56fea26469706673582212208b9f449485a9db76fe965a7f055a93eaab1082a40c1a2002b1f2b16317da7c4364736f6c63430008180033",
  "linkReferences": {},
  "deployedLinkReferences": {}
}