{
  "_format": "hh-sol-artifact-1",
  "contractName": "ForwarderHashedTimelockERC20",
  "sourceName": "contracts/ForwarderHashedTimelockERC20.sol",
  "abi": [
    {
      "inputs": [
        {
          "internalType": "address",
          "name": "initialOwner",
          "type": "address"
        }
      ],
      "stateMutability": "nonpayable",
      "type": "constructor"
    },
    {
      "inputs": [
        {
          "internalType": "address",
          "name": "owner",
          "type": "address"
        }
      ],
      "name": "OwnableInvalidOwner",
      "type": "error"
    },
    {
      "inputs": [
        {
          "internalType": "address",
          "name": "account",
          "type": "address"
        }
      ],
      "name": "OwnableUnauthorizedAccount",
      "type": "error"
    },
    {
      "inputs": [],
      "name": "ReentrancyGuardReentrantCall",
      "type": "error"
    },
    {
      "anonymous": false,
      "inputs": [
        {
          "indexed": true,
          "internalType": "address",
          "name": "counterparty",
          "type": "address"
        },
        {
          "indexed": true,
          "internalType": "address",
          "name": "tokenContract",
          "type": "address"
        },
        {
          "indexed": false,
          "internalType": "uint256",
          "name": "amount",
          "type": "uint256"
        },
        {
          "indexed": false,
          "internalType": "bytes32",
          "name": "hashlock",
          "type": "bytes32"
        },
        {
          "indexed": false,
          "internalType": "uint256",
          "name": "timelock",
          "type": "uint256"
        }
      ],
      "name": "HTLCERC20New",
      "type": "event"
    },
    {
      "anonymous": false,
      "inputs": [
        {
          "indexed": true,
          "internalType": "bytes32",
          "name": "hashlock",
          "type": "bytes32"
        },
        {
          "indexed": false,
          "internalType": "address",
          "name": "tokenContract",
          "type": "address"
        },
        {
          "indexed": false,
          "internalType": "uint256",
          "name": "amount",
          "type": "uint256"
        }
      ],
      "name": "HTLCERC20Refund",
      "type": "event"
    },
    {
      "anonymous": false,
      "inputs": [
        {
          "indexed": true,
          "internalType": "bytes32",
          "name": "hashlock",
          "type": "bytes32"
        },
        {
          "indexed": false,
          "internalType": "address",
          "name": "tokenContract",
          "type": "address"
        },
        {
          "indexed": false,
          "internalType": "uint256",
          "name": "amount",
          "type": "uint256"
        }
      ],
      "name": "HTLCERC20Settle",
      "type": "event"
    },
    {
      "anonymous": false,
      "inputs": [
        {
          "indexed": true,
          "internalType": "address",
          "name": "previousOwner",
          "type": "address"
        },
        {
          "indexed": true,
          "internalType": "address",
          "name": "newOwner",
          "type": "address"
        }
      ],
      "name": "OwnershipTransferred",
      "type": "event"
    },
    {
      "inputs": [],
      "name": "amount",
      "outputs": [
        {
          "internalType": "uint256",
          "name": "",
          "type": "uint256"
        }
      ],
      "stateMutability": "view",
      "type": "function"
    },
    {
      "inputs": [],
      "name": "counterparty",
      "outputs": [
        {
          "internalType": "address",
          "name": "",
          "type": "address"
        }
      ],
      "stateMutability": "view",
      "type": "function"
    },
    {
      "inputs": [],
      "name": "hashlock",
      "outputs": [
        {
          "internalType": "bytes32",
          "name": "",
          "type": "bytes32"
        }
      ],
      "stateMutability": "view",
      "type": "function"
    },
    {
      "inputs": [],
      "name": "incoming",
      "outputs": [
        {
          "internalType": "bool",
          "name": "",
          "type": "bool"
        }
      ],
      "stateMutability": "view",
      "type": "function"
    },
    {
      "inputs": [],
      "name": "owner",
      "outputs": [
        {
          "internalType": "address",
          "name": "",
          "type": "address"
        }
      ],
      "stateMutability": "view",
      "type": "function"
    },
    {
      "inputs": [],
      "name": "refund",
      "outputs": [
        {
          "internalType": "bool",
          "name": "",
          "type": "bool"
        }
      ],
      "stateMutability": "nonpayable",
      "type": "function"
    },
    {
      "inputs": [],
      "name": "renounceOwnership",
      "outputs": [],
      "stateMutability": "nonpayable",
      "type": "function"
    },
    {
      "inputs": [
        {
          "internalType": "address",
          "name": "_counterparty",
          "type": "address"
        },
        {
          "internalType": "bool",
          "name": "_incoming",
          "type": "bool"
        },
        {
          "internalType": "bytes32",
          "name": "_hashlock",
          "type": "bytes32"
        },
        {
          "internalType": "uint256",
          "name": "_timelock",
          "type": "uint256"
        },
        {
          "internalType": "address",
          "name": "_tokenContract",
          "type": "address"
        },
        {
          "internalType": "uint256",
          "name": "_amount",
          "type": "uint256"
        }
      ],
      "name": "requestRouting",
      "outputs": [
        {
          "internalType": "bool",
          "name": "",
          "type": "bool"
        }
      ],
      "stateMutability": "nonpayable",
      "type": "function"
    },
    {
      "inputs": [
        {
          "internalType": "bytes32",
          "name": "_preimage",
          "type": "bytes32"
        }
      ],
      "name": "settle",
      "outputs": [
        {
          "internalType": "bool",
          "name": "",
          "type": "bool"
        }
      ],
      "stateMutability": "nonpayable",
      "type": "function"
    },
    {
      "inputs": [],
      "name": "timelock",
      "outputs": [
        {
          "internalType": "uint256",
          "name": "",
          "type": "uint256"
        }
      ],
      "stateMutability": "view",
      "type": "function"
    },
    {
      "inputs": [],
      "name": "tokenContract",
      "outputs": [
        {
          "internalType": "address",
          "name": "",
          "type": "address"
        }
      ],
      "stateMutability": "view",
      "type": "function"
    },
    {
      "inputs": [
        {
          "internalType": "address",
          "name": "_tokenContract",
          "type": "address"
        },
        {
          "internalType": "uint256",
          "name": "_amount",
          "type": "uint256"
        }
      ],
      "name": "transfer",
      "outputs": [
        {
          "internalType": "bool",
          "name": "",
          "type": "bool"
        }
      ],
      "stateMutability": "nonpayable",
      "type": "function"
    },
    {
      "inputs": [
        {
          "internalType": "address",
          "name": "newOwner",
          "type": "address"
        }
      ],
      "name": "transferOwnership",
      "outputs": [],
      "stateMutability": "nonpayable",
      "type": "function"
    }
  ],
  "bytecode": "0x608060405234801561001057600080fd5b50604051610d25380380610d2583398101604081905261002f916100f5565b6001600055806001600160a01b03811661006357604051631e4fbdf760e01b81526000600482015260240160405180910390fd5b61006c816100a3565b5061009d600280546001600160a01b0319908116909155600380549091169055600060048190556006819055600555565b50610125565b600180546001600160a01b038381166001600160a01b0319831681179093556040519116919082907f8be0079c531659141344cd1fd0a4f28419497f9722a3daafe3b4186f6b6457e090600090a35050565b60006020828403121561010757600080fd5b81516001600160a01b038116811461011e57600080fd5b9392505050565b610bf1806101346000396000f3fe608060405234801561001057600080fd5b50600436106100cf5760003560e01c80639fc8f2fe1161008c578063aa8c217c11610066578063aa8c217c1461019b578063c3df6546146101a4578063d33219b4146101b7578063f2fde38b146101c057600080fd5b80639fc8f2fe1461015d578063a782086e14610171578063a9059cbb1461018857600080fd5b80634b3db91b146100d457806355a373d6146100fc578063590e1ae314610127578063715018a61461012f5780638da5cb5b14610139578063987757dd1461014a575b600080fd5b6100e76100e2366004610a59565b6101d3565b60405190151581526020015b60405180910390f35b60035461010f906001600160a01b031681565b6040516001600160a01b0390911681526020016100f3565b6100e7610478565b610137610619565b005b6001546001600160a01b031661010f565b6100e7610158366004610aba565b61062d565b6001546100e790600160a01b900460ff1681565b61017a60055481565b6040519081526020016100f3565b6100e7610196366004610ad3565b61086d565b61017a60045481565b60025461010f906001600160a01b031681565b61017a60065481565b6101376101ce366004610afd565b610920565b6000834281116102365760405162461bcd60e51b815260206004820152602360248201527f74696d656c6f636b2074696d65206d75737420626520696e207468652066757460448201526275726560e81b60648201526084015b60405180910390fd5b86156103d2576000831161028c5760405162461bcd60e51b815260206004820152601860248201527f546f6b656e20616d6f756e74206d757374206265203e20300000000000000000604482015260640161022d565b604051636eb1769f60e11b81526001600160a01b03898116600483015230602483015284919086169063dd62ed3e90604401602060405180830381865afa1580156102db573d6000803e3d6000fd5b505050506040513d601f19601f820116820180604052508101906102ff9190610b1f565b10156103575760405162461bcd60e51b815260206004820152602160248201527f546f6b656e20616c6c6f77616e6365206d757374206265203e3d20616d6f756e6044820152601d60fa1b606482015260840161022d565b6040516323b872dd60e01b81526001600160a01b038981166004830152306024830152604482018590528516906323b872dd906064016020604051808303816000875af11580156103ac573d6000803e3d6000fd5b505050506040513d601f19601f820116820180604052508101906103d09190610b38565b505b6001805460ff60a01b1916600160a01b89151502179055600280546001600160a01b03199081166001600160a01b038b81169182179093556003805490921692871692831790915560048590556006879055600588905560408051868152602081018a90529081018890527fe3484efcdf8e05cc477e73dafb1765a379b55cc6b7ec7562d94e8cb690e2dc659060600160405180910390a3506001979650505050505050565b600061048261095e565b6002546001600160a01b03166104aa5760405162461bcd60e51b815260040161022d90610b55565b6002546001600160a01b03166104d25760405162461bcd60e51b815260040161022d90610b55565b4260065411156105245760405162461bcd60e51b815260206004820152601760248201527f54696d656c6f636b206e6f742079657420706173736564000000000000000000604482015260640161022d565b600154600160a01b900460ff166105b4576003546002546004805460405163a9059cbb60e01b81526001600160a01b0393841692810192909252602482015291169063a9059cbb906044016020604051808303816000875af115801561058e573d6000803e3d6000fd5b505050506040513d601f19601f820116820180604052508101906105b29190610b38565b505b600554600354600454604080516001600160a01b03909316835260208301919091527f46ce46f569a5a717523440e97ad587475b589db9f3961907adfbd17a8a924d68910160405180910390a2610609610988565b5060016106166001600055565b90565b6106216109b5565b61062b60006109e2565b565b600061063761095e565b6005548260028160405160200161065091815260200190565b60408051601f198184030181529082905261066a91610b8c565b602060405180830381855afa158015610687573d6000803e3d6000fd5b5050506040513d601f19601f820116820180604052508101906106aa9190610b1f565b82146106f85760405162461bcd60e51b815260206004820152601c60248201527f686173686c6f636b206861736820646f6573206e6f74206d6174636800000000604482015260640161022d565b6002546001600160a01b03166107205760405162461bcd60e51b815260040161022d90610b55565b600154600160a01b900460ff161561078457600554600354600454604080516001600160a01b03909316835260208301919091527f62c18ef137bc571142fe028833a438c971996e417a2974bfba857e0540b32572910160405180910390a2610850565b6003546002546004805460405163a9059cbb60e01b81526001600160a01b0393841692810192909252602482015291169063a9059cbb906044016020604051808303816000875af11580156107dd573d6000803e3d6000fd5b505050506040513d601f19601f820116820180604052508101906108019190610b38565b50600554600354600454604080516001600160a01b03909316835260208301919091527f62c18ef137bc571142fe028833a438c971996e417a2974bfba857e0540b32572910160405180910390a25b610858610988565b6001925050506108686001600055565b919050565b60006108776109b5565b6002546001600160a01b031661089f5760405162461bcd60e51b815260040161022d90610b55565b60025460405163a9059cbb60e01b81526001600160a01b039182166004820152602481018490529084169063a9059cbb906044016020604051808303816000875af11580156108f2573d6000803e3d6000fd5b505050506040513d601f19601f820116820180604052508101906109169190610b38565b5060019392505050565b6109286109b5565b6001600160a01b03811661095257604051631e4fbdf760e01b81526000600482015260240161022d565b61095b816109e2565b50565b60026000540361098157604051633ee5aeb560e01b815260040160405180910390fd5b6002600055565b600280546001600160a01b0319908116909155600380549091169055600060048190556006819055600555565b6001546001600160a01b0316331461062b5760405163118cdaa760e01b815233600482015260240161022d565b600180546001600160a01b038381166001600160a01b0319831681179093556040519116919082907f8be0079c531659141344cd1fd0a4f28419497f9722a3daafe3b4186f6b6457e090600090a35050565b80356001600160a01b038116811461086857600080fd5b801515811461095b57600080fd5b60008060008060008060c08789031215610a7257600080fd5b610a7b87610a34565b95506020870135610a8b81610a4b565b94506040870135935060608701359250610aa760808801610a34565b915060a087013590509295509295509295565b600060208284031215610acc57600080fd5b5035919050565b60008060408385031215610ae657600080fd5b610aef83610a34565b946020939093013593505050565b600060208284031215610b0f57600080fd5b610b1882610a34565b9392505050565b600060208284031215610b3157600080fd5b5051919050565b600060208284031215610b4a57600080fd5b8151610b1881610a4b565b60208082526017908201527f4e6f7420696e20736574746c656d656e74207374617465000000000000000000604082015260600190565b6000825160005b81811015610bad5760208186018101518583015201610b93565b50600092019182525091905056fea264697066735822122001d93f94169a495f09f5dd1251182584374a9f8cf5c12daa40642c475fe5913164736f6c63430008180033",
  "linkReferences": {},
  "deployedLinkReferences": {}
}